{
  "address": "0xdeA0F7D168a0A1367550687e80d7Ab85eADcf1d2",
  "abi": [
    {
      "inputs": [
        {
          "internalType": "address",
          "name": "tokenAddress",
          "type": "address"
        }
      ],
      "stateMutability": "nonpayable",
      "type": "constructor"
    },
    {
      "inputs": [],
      "name": "AlreadySet",
      "type": "error"
    },
    {
      "inputs": [],
      "name": "InsufficientBalance",
      "type": "error"
    },
    {
      "inputs": [],
      "name": "NotSavingBank",
      "type": "error"
    },
    {
      "inputs": [],
      "name": "ReentrancyGuardReentrantCall",
      "type": "error"
    },
    {
      "inputs": [
        {
          "internalType": "address",
          "name": "token",
          "type": "address"
        }
      ],
      "name": "SafeERC20FailedOperation",
      "type": "error"
    },
    {
      "inputs": [],
      "name": "ZeroAddress",
      "type": "error"
    },
    {
      "inputs": [],
      "name": "ZeroAmount",
      "type": "error"
    },
    {
      "inputs": [
        {
          "internalType": "uint256",
          "name": "amount",
          "type": "uint256"
        }
      ],
      "name": "deposit",
      "outputs": [],
      "stateMutability": "nonpayable",
      "type": "function"
    },
    {
      "inputs": [],
      "name": "getBalance",
      "outputs": [
        {
          "internalType": "uint256",
          "name": "",
          "type": "uint256"
        }
      ],
      "stateMutability": "view",
      "type": "function"
    },
    {
      "inputs": [],
      "name": "savingBank",
      "outputs": [
        {
          "internalType": "address",
          "name": "",
          "type": "address"
        }
      ],
      "stateMutability": "view",
      "type": "function"
    },
    {
      "inputs": [
        {
          "internalType": "address",
          "name": "bank",
          "type": "address"
        }
      ],
      "name": "setSavingBank",
      "outputs": [],
      "stateMutability": "nonpayable",
      "type": "function"
    },
    {
      "inputs": [],
      "name": "token",
      "outputs": [
        {
          "internalType": "contract IERC20",
          "name": "",
          "type": "address"
        }
      ],
      "stateMutability": "view",
      "type": "function"
    },
    {
      "inputs": [
        {
          "internalType": "uint256",
          "name": "amount",
          "type": "uint256"
        },
        {
          "internalType": "address",
          "name": "to",
          "type": "address"
        }
      ],
      "name": "withdraw",
      "outputs": [],
      "stateMutability": "nonpayable",
      "type": "function"
    }
  ],
  "transactionHash": "0x6e0b2947e94cd46a7e8d69c2a568a733ca7d0717c35fa03c821cd050d3250ad7",
  "args": [
    "0x3d45852a524595B255Dc2b45CF92a45e2c368312"
  ],
  "numDeployments": 1,
  "solcInputHash": "863c49b058382d22090387d15fe7ee2b",
  "bytecode": "0x60a03461009c57601f61067638819003918201601f19168301916001600160401b038311848410176100a15780849260209460405283398101031261009c57516001600160a01b0381169081900361009c576001600055801561008b576080526040516105be90816100b88239608051818181607d01528181610209015281816102bc01526103860152f35b63d92e233d60e01b60005260046000fd5b600080fd5b634e487b7160e01b600052604160045260246000fdfe6080604052600436101561001257600080fd5b60003560e01c8062f714ce1461033657806312065fe014610288578063b6b55f2514610185578063b742a4d31461015e578063e933557b146100a65763fc0c546a1461005d57600080fd5b346100a15760003660031901126100a15760206040516001600160a01b037f0000000000000000000000000000000000000000000000000000000000000000168152f35b600080fd5b346100a15760203660031901126100a1576004356001600160a01b0381168091036100a1576001546001600160a01b03811661013457811561010a577fffffffffffffffffffffffff00000000000000000000000000000000000000001617600155005b7fd92e233d0000000000000000000000000000000000000000000000000000000060005260046000fd5b7fa741a0450000000000000000000000000000000000000000000000000000000060005260046000fd5b346100a15760003660031901126100a15760206001600160a01b0360015416604051908152f35b346100a15760203660031901126100a1576004356001600160a01b0360015416330361025e576101b36104dc565b80156102345761022d90604051907f23b872dd00000000000000000000000000000000000000000000000000000000602083015233602483015230604483015260648201526064815261020760848261048b565b7f0000000000000000000000000000000000000000000000000000000000000000610517565b6001600055005b7f1f2a20050000000000000000000000000000000000000000000000000000000060005260046000fd5b7f1dce0b110000000000000000000000000000000000000000000000000000000060005260046000fd5b346100a15760003660031901126100a1576040516370a0823160e01b81523060048201526020816024816001600160a01b037f0000000000000000000000000000000000000000000000000000000000000000165afa801561032a576000906102f7575b602090604051908152f35b506020813d602011610322575b816103116020938361048b565b810103126100a157602090516102ec565b3d9150610304565b6040513d6000823e3d90fd5b346100a15760403660031901126100a1576004356024356001600160a01b0381168091036100a1576001600160a01b0360015416330361025e576103786104dc565b811561023457801561010a577f00000000000000000000000000000000000000000000000000000000000000006040516370a0823160e01b81523060048201526020816024816001600160a01b0386165afa801561032a578491600091610456575b501061042c5761022d92604051927fa9059cbb000000000000000000000000000000000000000000000000000000006020850152602484015260448301526044825261042760648361048b565b610517565b7ff4d678b80000000000000000000000000000000000000000000000000000000060005260046000fd5b9150506020813d602011610483575b816104726020938361048b565b810103126100a157839051856103da565b3d9150610465565b90601f8019910116810190811067ffffffffffffffff8211176104ad57604052565b7f4e487b7100000000000000000000000000000000000000000000000000000000600052604160045260246000fd5b6002600054146104ed576002600055565b7f3ee5aeb50000000000000000000000000000000000000000000000000000000060005260046000fd5b906000602091828151910182855af11561032a576000513d61057f57506001600160a01b0381163b155b6105485750565b6001600160a01b03907f5274afe7000000000000000000000000000000000000000000000000000000006000521660045260246000fd5b6001141561054156fea2646970667358221220be6a6a0775f862bfbc3d5197536c5df2021433e9f49c64fbf55b01df436e770a64736f6c634300081c0033",
  "devdoc": {
    "details": "Chỉ SavingBank được phép deposit/withdraw",
    "errors": {
      "ReentrancyGuardReentrantCall()": [
        {
          "details": "Unauthorized reentrant call."
        }
      ],
      "SafeERC20FailedOperation(address)": [
        {
          "details": "An operation with an ERC-20 token failed."
        }
      ]
    },
    "kind": "dev",
    "methods": {},
    "title": "Vault",
    "version": 1
  },
  "userdoc": {
    "kind": "user",
    "methods": {
      "deposit(uint256)": {
        "notice": "Nạp token vào vault (chỉ SavingBank)"
      },
      "getBalance()": {
        "notice": "Số dư hiện tại"
      },
      "savingBank()": {
        "notice": "Địa chỉ SavingBank"
      },
      "setSavingBank(address)": {
        "notice": "Thiết lập địa chỉ SavingBank (chỉ gọi 1 lần)"
      },
      "withdraw(uint256,address)": {
        "notice": "Rút token từ vault (chỉ SavingBank)"
      }
    },
    "notice": "Quản lý quỹ thanh khoản cho SavingBank",
    "version": 1
  },
  "storageLayout": {
    "storage": [
      {
        "astId": 2964,
        "contract": "contracts/vault/Vault.sol:Vault",
        "label": "_status",
        "offset": 0,
        "slot": "0",
        "type": "t_uint256"
      },
      {
        "astId": 9792,
        "contract": "contracts/vault/Vault.sol:Vault",
        "label": "savingBank",
        "offset": 0,
        "slot": "1",
        "type": "t_address"
      }
    ],
    "types": {
      "t_address": {
        "encoding": "inplace",
        "label": "address",
        "numberOfBytes": "20"
      },
      "t_uint256": {
        "encoding": "inplace",
        "label": "uint256",
        "numberOfBytes": "32"
      }
    }
  }
}